:020000040800F2
:10000000005000203D0B00087D0B00087D0B000810
:100010007D0B00087D0B00087D0B00080000000030
:100020000000000000000000000000007D0B000840
:100030007D0B0008000000007D0B00080502000891
:100040007D0B00087D0B00087D0B00087D0B000870
:100050007D0B00087D0B00087D0B00087D0B000860
:100060007D0B00087D0B00087D0B00087D0B000850
:100070007D0B00087D0B00087D0B00087D0B000840
:100080007D0B00087D0B00087D0B00087D0B000830
:100090007D0B00087D0B00087D0B00087D0B000820
:1000A0007D0B00087D0B00087D0B00087D0B000810
:1000B0007D0B00087D0B00087D0B00087D0B000800
:1000C0007D0B00087D0B00087D0B00087D0B0008F0
:1000D0007D0B0008710400087D0B00087D0B0008F3
:0C00E0007D0B00087D0B00087D0B000864
:1000EC004FF0000C70B5404B86B083F800C0431E37
:1000FC000C468DF80F00052B6FD8DFE803F00E19B6
:10010C00244C60030623012210200DF117018DF8F9
:10011C00173000F0E5F906B070BD344800F094FBE0
:10012C00012210200DF10F0100F0DAF906B070BDBC
:10013C002E4800F0A7FB012210200DF10F0100F05A
:10014C00CFF906B070BD082AE5D1B4F9040000F06F
:10015C00CDFD0646B4F9020000F0C8FD244900F0BC
:10016C00CDFE0546B4F9000000F0C0FD204900F0BA
:10017C00C5FE0146E0880C4600F0B8FD1D4900F0B4
:10018C00BDFE844633462A4621461848CDF800C0A9
:10019C0000F09CFBBFE70D2ABDD1D4F80950D4F870
:1001AC0001202178D4F805301048009500F0E8FBC8
:1001BC00012210200DF10F0100F092F9ABE7012A9A
:1001CC00A9D121780948029200F0D8FB1020029A9C
:1001DC000DF10F0100F084F99DE7012211200DF1C2
:1001EC000F0100F07DF996E7140000201C000020A0
:1001FC000000C84200007A440F48104A0378116886
:10020C000133DBB20131012B116013D94FF0000C1B
:10021C0001210B4B80F800C01970136809490A4A78
:10022C0001FB03F3B2EBF30F03D3084A136801335A
:10023C00136070470370F0E70400002018000020E2
:10024C0015000020D578E9263789410008000020E8
:10025C002DE9F04F6F4A87B0136843F48033136075
:10026C0013689903FCD512246B4B6C4969480C60DC
:10027C005360136843F08073136003689B01FCD5D3
:10028C004368644943F0020343604B6803F00C037A
:10029C00082BFAD14FF400534FF0E0200022F02647
:1002AC0007255F4F5F4CDFF880C13C608C69DFF83D
:1002BC007CB144F010048C615D4CDFF8788161688E
:1002CC00DFF874A121F470016160616841F40011E0
:1002DC00616023613968594FACFB01C1890901394F
:1002EC004161574981F8FF628261056100F074F940
:1002FC00544800F0B9F8544800F04AFA00224FF480
:10030C0000531046514E504D63613378002BFCD096
:10031C0000233370DBF80090A9EB000000F0E2FC46
:10032C00514600F0EBFD0021044600F0DBFE20B945
:10033C002046474900F0EAFE00B1464C3B780133B9
:10034C00DBB2C82B3B7002D92B78002B59D121463C
:10035C00284600F031FBD8F80030A9EB0303132B2F
:10036C0020D82B7873B164223B4BA3FB09135B0998
:10037C0002FB1393312B0FD84FF400522C4B4846F1
:10038C005A61C2E74FF47A72274BA3FB09139B09FE
:10039C0002FB1393312BEFD94FF40052244B4846F8
:1003AC001A61B2E72D496869C8F8009000F0F2FCB8
:1003BC0000F0B6FE2949ADF80400A86900F0EAFC8B
:1003CC0000F0AEFE2549ADF80600E86900F0E2FC4D
:1003DC0000F0A6FE1222D5F884302C88CDF80E3011
:1003EC00D5F88030ADF80800CDF80A30B5F88C306F
:1003FC00104601A9ADF81240ADF8143000F070F8B9
:10040C00AFE7284600F03EFA154A137843F0040390
:10041C0013709CE70010024000041D0000200240F5
:10042C000000002000A24A04D34D621018000020E6
:10043C00001001401000002000007A44140000203D
:10044C0000E100E0ED0000081C0000201500002079
:10045C00CDCCCC3D0AD7233B1F85EB510000C842C5
:10046C000C00002000F060B870B50446164B442216
:10047C00002116481C6042F2107500F097FE42F203
:10048C002C0410202021124E124BB26942F48042EF
:10049C0042F00402B2615A6822F0F0025A605A68C3
:1004AC0042F0B0025A605A6822F470625A605A687C
:1004BC0042F480625A60084A084B9560D46083F815
:1004CC002503596070BD00BFF0000020AC00002077
:1004DC0000100240000801400038014000E100E03B
:1004EC00034610B5144692B00A4668461946234690
:1004FC0000F000FBFB2C0ED06946231D0DF1010012
:10050C00DBB2084A184413681C06FCD511F8013BF1
:10051C0081425360F7D1034A13685B06FCD512B0D5
:10052C0010BD00BF0038014038B5274B1A68920641
:10053C0018D5264D5C682B78E4B2052B10D8DFE873
:10054C0003F012171F232D03A978214800F0C4FAD9
:10055C006978AA7881EA02034340DBB29C422BD033
:10056C0000232B7038BDAA2CFCD101232B7038BD75
:10057C00A4F15502B2FA82F2520952002A7038BD27
:10058C0003236C702B7038BD002C4FF0000214BF8D
:10059C0004230523AC70EA702B7038BDEB783F2B2D
:1005AC009CBFEA1814710133AA78DBB29A42EB7043
:1005BC00D8D805232B7038BD064B1B68002BCFD029
:1005CC00084603499847CBE700380140AC000020AF
:1005DC00B0000020F0000020F0B54FF47A7246F61F
:1005EC0068004FF0230C44F61F6741F21116812569
:1005FC000124174B996941F00C019961D96941F0BB
:10060C000201D9611349A3F58233D1F800E02EF031
:10061C007F4EC1F800E0D1F800E04EF03B4EC1F83F
:10062C0000E0196821F0FF011960196841F0BB0165
:10063C001960A3F58433C3F828C0DF629861D861D0
:10064C001E625A639A63DA631A641D605C61F0BDC2
:10065C000010024000080140B1F5FA6F28BF4FF4BA
:10066C00FA61B1F57A7F38BF4FF47A71032805D857
:10067C00DFE800F00B080502054B19647047044BCA
:10068C00D9637047024B99637047014B59637047AC
:10069C00000400404FF0000C00B58360019BDDF8B6
:1006AC000CE04361029B016042608361C0F81CE076
:1006BC00C0F80CC0C0F810C05DF804FB2DE9F04781
:1006CC000E460446002118461D46174600F00AFD4A
:1006DC00002848D13946304600F052FA21680646C7
:1006EC0000F058FB31468046284600F053FBE16889
:1006FC0000F048FAD4F81CA081460AF100473946AC
:10070C0000F0E6FC30B95146484600F0FFFC0028EA
:10071C002DD0574638466168E76000F03BFB2169F5
:10072C000746304600F02CFA294600F0E7FBA1689A
:10073C0000F030FB054639462661404600F022FAAF
:10074C00294600F01FFA65690646294600F0C0FCF0
:10075C0030B9A5693046294600F0D8FC00B93546B9
:10076C002846BDE8F08700252846BDE8F0874F46AF
:10077C00D0E700BF0023C360036170474FF0000C4B
:10078C00016042608360C0F80CC0C0F810C07047B4
:10079C002DE9F0474FF0000C4FF0000E0446214FAE
:1007AC00214E224DDFF888A0DFF88890DFF8888092
:1007BC0084B00297019600955346A0F800E0C0F86B
:1007CC0004C0C0F808C0C0F80CC0C0F810C0C0F815
:1007DC0014C0C0F818C0C0F81CC0C0F888E0A0F85D
:1007EC008CE04A4641462030FFF754FF53464A46B8
:1007FC00414604F14000029701960095FFF74AFF2D
:10080C004FF080410D4B0E4A02970196009504F172
:10081C006000FFF73FFF0B4BC4E9203304B0BDE889
:10082C00F08700BF0000C84200009643000096C34A
:10083C009A99193ECDCC4C3DCDCC4C3FCDCCCC3D3A
:10084C000AD7A33CE803E80370B504462030FFF751
:10085C0091FF04F14000FFF78DFF04F16000FFF7FA
:10086C0089FF012300254FF47A7604F87E3BE8B229
:10087C004FF47A7124F8026F0135FFF7EDFE042D69
:10088C00F5D170BDF8B5002300224FF47A770546F8
:10089C001C460370026100F17E06E0B24FF47A71DF
:1008AC0026F8027F0134FFF7D7FE042CF5D105F1B1
:1008BC002000FFF75FFF05F14000FFF75BFF05F13C
:1008CC006000BDE8F840FFF755BF00BF2DE9F041CF
:1008DC000E4607462549304615461C46DDF818805D
:1008EC0000F0F6FB002838D13046214900F00EFC10
:1008FC0000282ED128461D497E6000F0E9FB50BB34
:10090C0028461B4900F002FC08BB20461949BD6073
:10091C0000F0DEFB38BB2046174900F0F7FBA0B90E
:10092C0040460021FC6000F0D3FBC0B940464FF0BC
:10093C007E5100F0EBFB20B14FF07E533B61BDE8E4
:10094C00F08143463B61BDE8F0810B4CE8E7084D74
:10095C00DBE7074ECEE7054DD7E7044ECAE7002389
:10096C003B61BDE8F081034CDAE700BF000034C204
:10097C0000003442000034C300003443417070471F
:10098C0010B40C46012C1146DDF804C01A460CD0EC
:10099C00022C05D074B9634610BC2030FFF7EEBEB4
:1009AC00634610BC6030FFF7E9BE634610BC4030B4
:1009BC00FFF7E4BE10BC70472DE9F043D0F8883047
:1009CC000578013385B00446C0F888307DB94FF402
:1009DC007A767E34E8B24FF47A7124F8026F0135DE
:1009EC00FFF73AFE042DF5D105B0BDE8F0830E46B5
:1009FC000B46426941682030FFF760FE33460746DC
:100A0C00A269A16804F14000FFF758FE00223346AA
:100A1C008046E16804F16000FFF750FE2B49054663
:100A2C00206900F0B7F92A4900F0ACF806464046B8
:100A3C00314600F0A7F83946814600F0A3F8294664
:100A4C0000F09EF839460090484600F099F8294687
:100A5C0000F098F841460190304600F091F8394684
:100A6C00064600F08FF8294600F08CF8034639460C
:100A7C003046029300F084F8294600F081F80025F6
:100A8C006F46DFF84C80DFF84C9003907E3457F8BB
:100A9C00046B4146304600F01BFB88B94946304692
:100AAC0000F034FB78B9304600F060FB81B2E8B25C
:100ABC0024F8021F0135FFF7CFFD042DE7D193E792
:100ACC0040F21A41F3E74FF4FA61F0E700806D440D
:100ADC00004083440000FA4449B103460020194405
:100AEC0013F8012B8B4280EA0200F9D170470846BB
:100AFC00704700BF45F2AA5CF8B506460D461F4686
:100B0C00A0F800C08170C3707BB114465D4022B167
:100B1C001A462146043000F099FBA446E0191CF853
:100B2C00011B844585EA0105F9D13E443571F8BDB8
:100B3C000A480B490B4A884204DA52F8043B40F845
:100B4C00043BF8E7084809494FF00002884202DAF2
:100B5C0040F8042BFAE7FFF77BFB704700000020FE
:100B6C00040000206413000804000020F40000209E
:100B7C00FFF7FEBF7047704780F0004002E000BFF7
:100B8C0081F0004142001FBF5FEA410392EA030F6C
:100B9C007FEA226C7FEA236C6AD04FEA1262D2EBB6
:100BAC001363C1BFD218414048404140B8BF5B42BB
:100BBC00192B88BF704710F0004F40F4000020F054
:100BCC007F4018BF404211F0004F41F4000121F06A
:100BDC007F4118BF494292EA030F3FD0A2F10102B4
:100BEC0041FA03FC10EB0C00C3F1200301FA03F1F2
:100BFC0000F0004302D5494260EB4000B0F5000F15
:100C0C0013D3B0F1807F06D340084FEA310102F1D3
:100C1C000102FE2A51D2B1F1004F40EBC25008BF85
:100C2C0020F0010040EA03007047490040EB00004F
:100C3C00013A28BFB0F5000FEDD2B0FA80FCACF150
:100C4C00080CB2EB0C0200FA0CF0AABF00EBC2507D
:100C5C0052421843BCBFD0401843704792F0000F6B
:100C6C0081F4000106BF80F400000132013BB5E7BE
:100C7C004FEA41037FEA226C18BF7FEA236C21D034
:100C8C0092EA030F04D092F0000F08BF0846704799
:100C9C0090EA010F1CBF0020704712F07F4F04D167
:100CAC00400028BF40F00040704712F100723CBF7A
:100CBC0000F50000704700F0004343F0FE4040F4A4
:100CCC00000070477FEA226216BF08467FEA236362
:100CDC000146420206BF5FEA412390EA010F40F44D
:100CEC00800070474FF0000304E000BF10F0004399
:100CFC0048BF40425FEA000C08BF704743F0964380
:100D0C0001464FF000001CE050EA010208BF70479A
:100D1C004FF000030AE000BF50EA010208BF704721
:100D2C0011F0004302D5404261EB41015FEA010C36
:100D3C0002BF84460146002043F0B64308BFA3F12E
:100D4C008053A3F50003BCFA8CF2083AA3EBC25310
:100D5C0010DB01FA02FC634400FA02FCC2F120022F
:100D6C00BCF1004F20FA02F243EB020008BF20F066
:100D7C000100704702F1200201FA02FCC2F12002CC
:100D8C0050EA4C0021FA02F243EB020008BF20EAC1
:100D9C00DC7070474FF0FF0C1CEAD0521EBF1CEAEF
:100DAC00D15392EA0C0F93EA0C0F6FD01A4480EADD
:100DBC00010C400218BF5FEA41211ED04FF00063C6
:100DCC0043EA501043EA5111A0FB01310CF00040F2
:100DDC00B1F5000F3EBF490041EAD3715B0040EA18
:100DEC00010062F17F02FD2A1DD8B3F1004F40EBE8
:100DFC00C25008BF20F00100704790F0000F0CF0BB
:100E0C00004C08BF49024CEA502040EA51207F3A7E
:100E1C00C2BFD2F1FF0340EAC250704740F4000059
:100E2C004FF00003013A5DDC12F1190FDCBF00F04A
:100E3C0000407047C2F10002410021FA02F1C2F1F8
:100E4C00200200FA02FC5FEA310040F1000053EA94
:100E5C004C0308BF20EADC70704792F0000F00F0E2
:100E6C00004C02BF400010F4000F013AF9D040EAE8
:100E7C000C0093F0000F01F0004C02BF490011F47C
:100E8C00000F013BF9D041EA0C018FE70CEAD1537A
:100E9C0092EA0C0F18BF93EA0C0F0AD030F0004CFA
:100EAC0018BF31F0004CD8D180EA010000F00040AE
:100EBC00704790F0000F17BF90F0004F084691F06C
:100ECC00000F91F0004F14D092EA0C0F01D14202A6
:100EDC000FD193EA0C0F03D14B0218BF084608D16F
:100EEC0080EA010000F0004040F0FE4040F40000B9
:100EFC00704740F0FE4040F4400070474FF0FF0C4C
:100F0C001CEAD0521EBF1CEAD15392EA0C0F93EA92
:100F1C000C0F69D0A2EB030280EA010C49024FEAE4
:100F2C00402037D04FF0805343EA111143EA10139D
:100F3C000CF000408B4238BF5B0042F17D024FF455
:100F4C00000C8B4224BF5B1A40EA0C00B3EB510F30
:100F5C0024BFA3EB510340EA5C00B3EB910F24BF19
:100F6C00A3EB910340EA9C00B3EBD10F24BFA3EB9E
:100F7C00D10340EADC001B0118BF5FEA1C1CE0D166
:100F8C00FD2A3FF650AF8B4240EBC25008BF20F019
:100F9C00010070470CF0004C4CEA50207F32C2BF6D
:100FAC00D2F1FF0340EAC250704740F400004FF00A
:100FBC000003013A37E792F0000F00F0004C02BF3B
:100FCC00400010F4000F013AF9D040EA0C0093F005
:100FDC00000F01F0004C02BF490011F4000F013B5F
:100FEC00F9D041EA0C0195E70CEAD15392EA0C0FC7
:100FFC0008D142027FF47DAF93EA0C0F7FF470AFFF
:10100C00084676E793EA0C0F04D14B023FF44CAF41
:10101C0008466EE730F0004C18BF31F0004CCAD1D6
:10102C0030F000427FF45CAF31F000437FF43CAF12
:10103C005FE700BF4FF0FF3C06E000BF4FF0010C34
:10104C0002E000BF4FF0010C4DF804CD4FEA400216
:10105C004FEA41037FEA226C18BF7FEA236C11D060
:10106C0001B052EA530C18BF90EA010F58BFB2EB13
:10107C00030088BFC81738BF6FEAE17018BF40F093
:10108C00010070477FEA226C02D15FEA402C05D147
:10109C007FEA236CE4D15FEA412CE1D05DF8040BCC
:1010AC00704700BF844608466146FFE70FB5FFF75F
:1010BC00C9FF002848BF10F1000F0FBD4DF808ED17
:1010CC00FFF7F4FF0CBF012000205DF808FB00BF08
:1010DC004DF808EDFFF7EAFF34BF012000205DF862
:1010EC0008FB00BF4DF808EDFFF7E0FF94BF0120AF
:1010FC0000205DF808FB00BF4DF808EDFFF7D2FFAC
:10110C0094BF012000205DF808FB00BF4DF808EDEE
:10111C00FFF7C8FF34BF012000205DF808FB00BFBB
:10112C004FEA4002B2F1FE4F0FD34FF09E03B3EBE8
:10113C0012620DD94FEA002343F0004310F0004F28
:10114C0023FA02F018BF404270474FF0000070477E
:10115C0012F1610F01D1420205D110F0004008BF1D
:10116C006FF0004070474FF00000704742000ED205
:10117C00B2F1FE4F0BD34FF09E03B3EB126209D4C6
:10118C004FEA002343F0004323FA02F070474FF07C
:10119C000000704712F1610F01D1420202D14FF0F1
:1011AC00FF3070474FF00000704700BF70B58607E6
:1011BC0047D0541E002A3ED00346CAB201E0013C7F
:1011CC0039D303F8012B9D07F9D1032C2CD9CDB2BF
:1011DC0005EB05250F2C1A4605EB054534D9A4F172
:1011EC00100C2CF00F0603F1100EB6444FEA1C1C29
:1011FC00C2E90055C2E9025510327245F8D10CF122
:10120C00010214F00C0F03EB021204F00F0C13D0BC
:10121C00ACF1040323F003030433134442F8045BDE
:10122C009342FBD10CF003042CB1C9B21C4403F85B
:10123C00011BA342FBD170BD64461346002CF4D1B4
:10124C00F9E703461446C0E7A446E1E7844641EAC1
:10125C00000313F0030349D1403A23D30B68036016
:10126C004B6843608B688360CB68C3600B69036118
:10127C004B6943618B698361CB69C3610B6A036200
:10128C004B6A43628B6A8362CB6AC3620B6B0363E8
:10129C004B6B43638B6B8363CB6BC36340304031CD
:1012AC00403ADBD230320BD30B6803604B6843609F
:1012BC008B688360CB68C36010301031103AF3D266
:1012CC000C3205D351F8043B40F8043B043AF9D2F4
:1012DC00043208D0D2071CBF11F8013B00F8013BC7
:1012EC0001D30B8803806046704700BF082A13D3D4
:1012FC008B07B1D010F00303AED0C3F10403D21AA4
:10130C00DB071CBF11F8013B00F8013BA4D331F8FB
:10131C00023B20F8023B9FE7043AD9D3013A11F87B
:10132C00013B00F8013BF9D20B7803704B7843700A
:10133C008B78837060467047F8B500BFF8BC08BC6A
:10134C009E467047F8B500BFF8BC08BC9E46704777
:08135C00FCFEFF7F0100000010
:0413640000127A00F9
:0400000508000B3DA7
:00000001FF
